UHL20190218AUTOPAY  FBC      000001SALARY DEPOSITS004AUTOPAY                       FBC                                                         
PAY00183020000000004200300506101                           5100081040000000312752029012901                                          ASHBORN                   K C 000000000000000000169300ZWL   2019021800                                                                                                
PAY00240000000000000901601774401                           5100081040000000312752029012901                                          BLACK                     B   000000000000000000985700ZWL   2019021800                                                                                                
PAY00041440000000414411691320001                           5100081040000000312752029012901                                          CHAMBIRO                  M   000000000000000000089500ZWL   2019021800                                                                                                
PAY00101010000000004000012027701                           5100081040000000312752029012901                                          CHIGWADA                  R   000000000000000000049500ZWL   2019021800                                                                                                
PAY00181010000000003101600188201                           5100081040000000312752029012901                                          DEKETEKE                  P   000000000000000000156600ZWL   2019021800                                                                                                
PAY00240000000000000903279253201                           5100081040000000312752029012901                                          GOPAL                     C   000000000000000000383700ZWL   2019021800                                                                                                
PAY00041180000000411878566420001                           5100081040000000312752029012901                                          Kadzere                   J   000000000000000000060400ZWL   2019021800                                                                                                
PAY00200000000000000200205672701                           5100081040000000312752029012901                                          KANDOTO                   A   000000000000000000052400ZWL   2019021800                                                                                                
PAY00200000000000000077687699801                           5100081040000000312752029012901                                          KASEKE                    S   000000000000000000050300ZWL   2019021800                                                                                                
PAY00200000000000000077681070901                           5100081040000000312752029012901                                          KASEKE                    L   000000000000000000072200ZWL   2019021800                                                                                                
PAY00183020000000004101605588601                           5100081040000000312752029012901                                          KHOZA                     P   000000000000000000147700ZWL   2019021800                                                                                                
PAY00081010000000301523456017001                           5100081040000000312752029012901                                          KUJENGA                   I   000000000000000000056000ZWL   2019021800                                                                                                
PAY00183020000000004101600186701                           5100081040000000312752029012901                                          LUBBE                     G   000000000000000000945700ZWL   2019021800                                                                                                
PAY00181070000000009101600344101                           5100081040000000312752029012901                                          MAKAMURE                  S J 000000000000000000989200ZWL   2019021800                                                                                                
PAY00065100000000282264256001101                           5100081040000000312752029012901                                          MAKIWA                    W   000000000000000000069700ZWL   2019021800                                                                                                
PAY00260000000005113760727750101                           5100081040000000312752029012901                                          MANGANI                   P   000000000000000000087000ZWL   2019021800                                                                                                
PAY00031020000000914000088011501                           5100081040000000312752029012901                                          MUPARUTSA                 L R 000000000000000000061500ZWL   2019021800                                                                                                
PAY00200000000000000077942530401                           5100081040000000312752029012901                                          MARIMA                    T   000000000000000000052900ZWL   2019021800                                                                                                
PAY00061180000000302401045001701                           5100081040000000312752029012901                                          MAWARIRE                  G   000000000000000000057400ZWL   2019021800                                                                                                
PAY00021990000000000000107289601                           5100081040000000312752029012901                                          MILLAR                    S   000000000000000000255200ZWL   2019021800                                                                                                
PAY00045640000000456476478720001                           5100081040000000312752029012901                                          Mlambo                    D   000000000000000000065900ZWL   2019021800                                                                                                
PAY00240000000000000100419491901                           5100081040000000312752029012901                                          MOYO                      N   000000000000000000052100ZWL   2019021800                                                                                                
PAY00183020000000004101605637801                           5100081040000000312752029012901                                          MOYO                      E   000000000000000000183900ZWL   2019021800                                                                                                
PAY00200000000000000078289430901                           5100081040000000312752029012901                                          MUNGUFA                   O   000000000000000000062100ZWL   2019021800                                                                                                
PAY00181010000000002200303631401                           5100081040000000312752029012901                                          MUSETWA                   M   000000000000000000058100ZWL   2019021800                                                                                                
PAY00200000000000000200075994201                           5100081040000000312752029012901                                          MUSHONGA                  M   000000000000000000052900ZWL   2019021800                                                                                                
PAY00021990000000000000111479301                           5100081040000000312752029012901                                          MUTEMANGAWO               M   000000000000000000069800ZWL   2019021800                                                                                                
PAY00031020000000914000002710201                           5100081040000000312752029012901                                          MUTUNGI JONASI            R   000000000000000000060900ZWL   2019021800                                                                                                
PAY00031010000000914000079274701                           5100081040000000312752029012901                                          NYAUZIMA                  I   000000000000000000057500ZWL   2019021800                                                                                                
PAY00181040000000006101606595501                           5100081040000000312752029012901                                          MARUFU                    N   000000000000000000151100ZWL   2019021800                                                                                                
PAY00181010000000002200303625701                           5100081040000000312752029012901                                          PHIRI                     K   000000000000000000058200ZWL   2019021800                                                                                                
PAY00181040000000006101606162301                           5100081040000000312752029012901                                          RWATIZHA                  S   000000000000000000224600ZWL   2019021800                                                                                                
PAY00111080000000000031011633501                           5100081040000000312752029012901                                          SANDE                     S   000000000000000000058300ZWL   2019021800                                                                                                
PAY00200000000000000077814115801                           5100081040000000312752029012901                                          SIMENTI                   K   000000000000000000078800ZWL   2019021800                                                                                                
PAY00181020000000004200301183501                           5100081040000000312752029012901                                          DUBE                      N   000000000000000000061800ZWL   2019021800                                                                                                
PAY00181020000000004101606363301                           5100081040000000312752029012901                                          NDLOVU                    E N 000000000000000000061300ZWL   2019021800                                                                                                
PAY00181010000000004200301438901                           5100081040000000312752029012901                                          JABVURAH                  M S 000000000000000000062900ZWL   2019021800                                                                                                
PAY00181020000000004200301191601                           5100081040000000312752029012901                                          MASEKO                    C   000000000000000000094200ZWL   2019021800                                                                                                
PAY00181020000000004200301184301                           5100081040000000312752029012901                                          MASIKINYE                 A   000000000000000000078000ZWL   2019021800                                                                                                
PAY00181020000000007101605813701                           5100081040000000312752029012901                                          MASHAVA                   S   000000000000000000057000ZWL   2019021800                                                                                                
PAY00181020000000004200301181901                           5100081040000000312752029012901                                          MUSARIRI (SNR)            J   000000000000000000053900ZWL   2019021800                                                                                                
PAY00181020000000004101606356801                           5100081040000000312752029012901                                          MUSARIRI                  T   000000000000000000078100ZWL   2019021800                                                                                                
PAY00181020000000004101606372201                           5100081040000000312752029012901                                          MUTIRO                    L   000000000000000000067200ZWL   2019021800                                                                                                
PAY00181020000000007200302589101                           5100081040000000312752029012901                                          NDHLOVU                   S   000000000000000000058000ZWL   2019021800                                                                                                
PAY00051400000000870024465060001                           5100081040000000312752029012901                                          NKOMO                     N   000000000000000000084300ZWL   2019021800                                                                                                
PAY00181020000000007200302588301                           5100081040000000312752029012901                                          NYONI                     B   000000000000000000055100ZWL   2019021800                                                                                                
PAY00181020000000004200301185101                           5100081040000000312752029012901                                          RANGUNA                   D   000000000000000000060300ZWL   2019021800                                                                                                
PAY00181020000000007200302599901                           5100081040000000312752029012901                                          RANGANI                   T   000000000000000000077500ZWL   2019021800                                                                                                
PAY00181020000000007200302594801                           5100081040000000312752029012901                                          SIFA                      S   000000000000000000061500ZWL   2019021800                                                                                                
PAY00240000000000000907006771701                           5100081040000000312752029012901                                          PHIRI                     D   000000000000000000068800ZWL   2019021800                                                                                                
PAY00181010000000007200302630801                           5100081040000000312752029012901                                          SIBANDA                   T   000000000000000000061500ZWL   2019021800                                                                                                
PAY00260000000006113760956610101                           5100081040000000312752029012901                                          NKOMO                     N   000000000000000000059500ZWL   2019021800                                                                                                
PAY00240000000000000100487770601                           5100081040000000312752029012901                                          NDLOVU                    M   000000000000000000075800ZWL   2019021800                                                                                                
PAY00031150000000024050115230101                           5100081040000000312752029012901                                          NDOU                      B   000000000000000000056700ZWL   2019021800                                                                                                
PAY00200000000000000200049535601                           5100081040000000312752029012901                                          MUPAMBO                   C   000000000000000000056400ZWL   2019021800                                                                                                
PAY00200000000000000100410193201                           5100081040000000312752029012901                                          MUZARABANI                O   000000000000000000047300ZWL   2019021800                                                                                                
PAY00081010000000303513913196701                           5100081040000000312752029012901                                          CHIZAKA                   M   000000000000000000057000ZWL   2019021800                                                                                                
PAY00100000000000003000007756501                           5100081040000000312752029012901                                          MAKUNDE                   D   000000000000000000057800ZWL   2019021800                                                                                                
PAY00055070000000870025322470001                           5100081040000000312752029012901                                          MATSVIMBO                 I   000000000000000000065300ZWL   2019021800                                                                                                
PAY00061200000000332465635001001                           5100081040000000312752029012901                                          Chikomo                   R   000000000000000000051300ZWL   2019021800                                                                                                
PAY00200000000000000100407811601                           5100081040000000312752029012901                                          Mangena                   B   000000000000000000055200ZWL   2019021800                                                                                                
PAY00240000000000000100409998301                           5100081040000000312752029012901                                          Chinyama                  R   000000000000000000062500ZWL   2019021800                                                                                                
PAY00051010000000875050869280001                           5100081040000000312752029012901                                          Hove                      T   000000000000000000057200ZWL   2019021800                                                                                                
PAY00240000000000000901373981601                           5100081040000000312752029012901                                          Nzuwa                     S   000000000000000000051200ZWL   2019021800                                                                                                
PAY00200000000000000100186624501                           5100081040000000312752029012901                                          Maonde                    D   000000000000000000055600ZWL   2019021800                                                                                                
PAY00181020000000004101606378101                           5100081040000000312752029012901                                          Bent                          000000000000000001095500ZWL   2019021800                                                                                                
PAY00021860000000002186106160401                           5100081040000000312752029012901                                          Mutiti                    L   000000000000000000179700ZWL   2019021800                                                                                                
PAY00240000000588892300244739801                           5100081040000000312752029012901                                          Muchemenye                V   000000000000000000059300ZWL   2019021800                                                                                                
PAY00181070000000001199021392701                           5100081040000000312752029012901                                          Nyanyiwa                  H   000000000000000000059500ZWL   2019021800                                                                                                
PAY00181010000000004101606639701                           5100081040000000312752029012901                                          SELMAN                    MA  000000000000000000154200ZWL   2019021800                                                                                                
PAY00200000000000000100143441801                           5100081040000000312752029012901                                          BERE                      E   000000000000000000061700ZWL   2019021800                                                                                                
PAY00240000000000000902046459701                           5100081040000000312752029012901                                          Nyamuranga                C   000000000000000000205200ZWL   2019021800                                                                                                
PAY00200000000000000100412759101                           5100081040000000312752029012901                                          Dengu                     W   000000000000000000046700ZWL   2019021800                                                                                                
PAY00031020000000024058617200101                           5100081040000000312752029012901                                          Dullabh                   A   000000000000000000126900ZWL   2019021800                                                                                                
PAY00051100000000875050801740001                           5100081040000000312752029012901                                          Kamuti                    W   000000000000000000060700ZWL   2019021800                                                                                                
PAY00240000000000000100060268001                           5100081040000000312752029012901                                          Mukumba                   M   000000000000000000047300ZWL   2019021800                                                                                                
PAY00181020000000004101607653801                           5100081040000000312752029012901                                          GOTOHORI                  R   000000000000000000064500ZWL   2019021800                                                                                                
PAY00081010000601704100238676301                           5100081040000000312752029012901                                          Wede                      P   000000000000000000055600ZWL   2019021800                                                                                                
PAY00045690000000456910979920001                           5100081040000000312752029012901                                          Hungwe                    P   000000000000000000032100ZWL   2019021800                                                                                                
PAY00181020000000004200302920301                           5100081040000000312752029012901                                          Mpofu                     D   000000000000000000060900ZWL   2019021800                                                                                                
PAY00240000000000000100376678101                           5100081040000000312752029012901                                          Nyambo                    T   000000000000000000048600ZWL   2019021800                                                                                                
PAY00181020000000001299006737401                           5100081040000000312752029012901                                          Maphosa                       000000000000000000084800ZWL   2019021800                                                                                                
PAY00240000000588892300402445001                           5100081040000000312752029012901                                          Tumbude                       000000000000000000055600ZWL   2019021800                                                                                                
PAY00240000000000000112472272601                           5100081040000000312752029012901                                          Chimusoro                 A   000000000000000000055600ZWL   2019021800                                                                                                
PAY00060000000585997000393840901                           5100081040000000312752029012901                                          Nyoni                     C   000000000000000000037100ZWL   2019021800                                                                                                
PAY00200000000000000200116478701                           5100081040000000312752029012901                                          Nyoni                     S   000000000000000000035900ZWL   2019021800                                                                                                
PAY00240000000000000100610353801                           5100081040000000312752029012901                                          Dombo                     F   000000000000000000165600ZWL   2019021800                                                                                                
PAY00041200000000412017603120001                           5100081040000000312752029012901                                          Nyamayedenga                  000000000000000000047000ZWL   2019021800                                                                                                
PAY00200000000000000100481205701                           5100081040000000312752029012901                                          Ncube                         000000000000000000019900ZWL   2019021800                                                                                                
PAY00200000000000000077519645001                           5100081040000000312752029012901                                          Mikeri                        000000000000000000051800ZWL   2019021800                                                                                                
PAY00240000000000000107197772501                           5100081040000000312752029012901                                          Mayere                        000000000000000000023200ZWL   2019021800                                                                                                
UTLZWL000000000000000010911200000000000000000010911200000091000091000000000000000000
